:020000040800F2
:10000000381B0020D1020008BD140008B5140008F8
:10001000B9140008AD140008211600080000000003
:10002000000000000000000000000000151500089E
:10003000B11400080000000011150008191500088F
:10004000EB020008EB020008EB020008EB020008DC
:10005000EB020008EB020008EB020008EB020008CC
:10006000EB020008EB020008EB020008EB020008BC
:10007000EB020008EB020008EB020008EB020008AC
:10008000EB020008EB020008EB020008EB0200089C
:10009000EB020008EB020008EB020008EB0200088C
:1000A000EB020008EB020008EB020008EB0200087C
:1000B000EB020008EB020008EB020008EB0200086C
:1000C000EB020008EB020008EB020008EB0200085C
:1000D000EB020008D1150008EB020008EB02000853
:1000E000EB020008EB020008EB020008EB0200083C
:1000F000EB020008EB020008EB020008EB0200082C
:10010000EB020008EB020008EB020008EB0200081B
:10011000EB020008EB02000879150008A1150008A1
:10012000EB020008EB020008EB020008EB020008FB
:10013000EB020008EB020008EB020008EB020008EB
:1001400000000000000000000000000000000000AF
:10015000EB020008EB020008EB020008EB020008CB
:10016000EB020008EB020008EB020008EB020008BB
:10017000EB020008EB020008EB020008EB020008AB
:10018000EB02000800F002F800F092F80AA090E8F4
:10019000000C82448344AAF10107DA4501D100F042
:1001A00087F8AFF2090EBAE80F0013F0010F18BF7D
:1001B000FB1A43F0010318474C3600006C36000070
:1001C000103A24BF78C878C1FAD8520724BF30C883
:1001D00030C144BF04680C60704700000023002455
:1001E00000250026103A28BF78C1FBD8520728BF47
:1001F00030C148BF0B6070476E2900F04F827029F4
:1002000000F0AF83662903F0FE81652903F0FB81CE
:10021000672903F0F881612903F0F78103681B0A5D
:1002200028BF41F08001692900F0FC81642900F0B9
:10023000F981752900F0F6816F2900F03D83782956
:1002400000F07B83E92900F0D782E42900F0D48212
:10025000F52900F0D182EF2900F03A83F82900F067
:100260007A830368DB0928BF41F08001632900F02D
:100270005882732900F05D82E32900F0C387F329D7
:1002800000F0C887002070471FB503F0AFF901F0F8
:100290000FF804000020002103F092F9401C606078
:1002A0000020002103F076F9E0601FBD10B510BDFD
:1002B00000F0D9FF1146FFF7E7FF01F03FFF01F023
:1002C000ADF803B4FFF7F2FF03BC00F055FB0000EC
:1002D0000948804709480047FEE7FEE7FEE7FEE7DA
:1002E000FEE7FEE7FEE7FEE7FEE7FEE70448054916
:1002F000054A064B704700001D15000885010008DF
:1003000038030020381B0020380B0020380B002059
:100310007CB51D4616460C00009001D02044401EBE
:10032000074B7B442A4669460190304600F0CFF9DE
:1003300005461CB10020694600F0DCF928467CBD6A
:10034000D903000070B50C460546012A05D028786F
:10035000800600D5EA69002302E0012305E05B1C6A
:10036000934202D2E05C0028F9D1A869E618C01ACD
:10037000A861286A18442862284600F01AF904E0A7
:10038000D5E9012114F8010B9047B442F8D328466F
:1003900000F025F970BD00002DE9F05F89460446A4
:1003A0004FF0000ADFF874B1FB44C0F820A02046EB
:1003B000E1688847002874D0252806D0D4E90121B7
:1003C0009047206A401C2062F1E700265F462046E5
:1003D000E16888472028054607DB312D05D27819CA
:1003E00010F8200C08B10643F1E7B00701D526F05C
:1003F0000406C4F81CA00027C4F818A02A2D09D0B0
:10040000284603F0BFF838B304EB8708303DC8F83E
:10041000185019E059F8041B204604EB870291613B
:10042000E1688847012F054618D1E069002820DAE5
:1004300026F020061DE0D8F8180000EB800005EB40
:1004400040003038C8F818002046E1688847054663
:1004500003F098F80028EED1012F0AD02E2D08D1F4
:100460002046E16888477F1C0546022F46F020069B
:10047000C4DBA069002803DA404246F00106A0610F
:10048000F00701D026F010066C2D0BD0682D09D096
:100490004C2D39D06A2D35D0742D35D07A2D33D0EE
:1004A00016E038E0E1682F4620468847B842054606
:1004B00009D16C2F26D04FF48060E16806432046B6
:1004C0008847054604E06C2F1AD04FF4807006432D
:1004D0000DB3A5F14100192802D8203546F4006675
:1004E0004A462946204626604E46FFF785FE80B1E3
:1004F00001280BD0F61D26F0070000F1080956E789
:100500004020E4E78020D8E70020D6E706F1040980
:100510004DE7284652E7206ABDE8F09F62320000AE
:1005200010B5431C02E010F8011B71B18107FAD12C
:100530004FF0013202C88C1A8C4314EAC211F9D070
:10054000C01A0A0603D0C01E10BDC01A10BD0A048E
:1005500001D0801E10BD0902FCD0401E10BD4FF01E
:10056000000200B5134694469646203922BFA0E803
:100570000C50A0E80C50B1F12001BFF4F7AF09070F
:1005800028BFA0E80C5048BF0CC05DF804EB890000
:1005900028BF40F8042B08BF704748BF20F8022B43
:1005A00011F0804F18BF00F8012B7047704770475B
:1005B000704770B5044685690068C10601D53026CC
:1005C00000E02026C00707D070BDD4E901213046E5
:1005D0009047206A401C20626D1EF6D570BD70B534
:1005E000044685690078C00707D170BDD4E90121B0
:1005F00020209047206A401C20626D1EF6D570BDF9
:1006000009684A0501D540B27047C905FCD500B25A
:10061000704709684A0501D5C0B27047C905FCD5C5
:1006200080B270472DE9F041064600241068752914
:10063000314616A510D0FFF7E3FF002802DA40424A
:1006400013A507E031688A0701D512A502E0490722
:1006500004D511A5012401E0FFF7DBFF00210A22E8
:1006600006F1240709E0B0FBF2FCB0FBF2F302FB59
:100670001C00303078541846491C0028F3D123461A
:100680002A463046BDE8F04100F0CDB90000000038
:100690002D0000002B0000002000000011680268FF
:1006A000006A530501D508700AE0D30501D508801A
:1006B00006E0130603D5C217C1E9000200E0086096
:1006C0000120704701694A1C02610878704700B533
:1006D0008FB0CDE901310021059105497944CDE97B
:1006E000031011466846FFF757FE0FB000BD00002B
:1006F000E5FFFFFF0A6802F8010B0A607047D1E9C5
:1007000000239A4202D2531C0B601070704710B540
:10071000436913B1AFF3008001E0FFF713FE01203E
:1007200010BD127800F124010A7000224A700122E3
:10073000EDE711684FF0FF32E9E700002DE9FF5FB8
:1007400015468A460446DFF8AC80F8440027D8E90D
:1007500000103E46CDE9001010E03AF816106A4647
:1007600002A800F05BFD411C07D02178890603D563
:10077000E269391891420DD80744761C207880062A
:1007800002D5E069B84205DDAE42E6DB3AF8160074
:100790000028E2D1A069C01BA0612046FFF709FF35
:1007A000D8E90010CDE90010002017E03AF8181041
:1007B0006A4602A800F032FDB0F1FF3F81460BD03F
:1007C00000250DF1080B05E0D4E901211BF8050017
:1007D00090476D1C4D45F7D308F10100B0428046AB
:1007E000E4DB206A384420622046FFF7F8FEBDE8CB
:1007F000FF9F0000D22E00002DE9F0418046D21D5F
:1008000022F007020025D2E90002F52915A614D02E
:10081000011E72F1000106DA0023D0EB030063EB46
:10082000020211A608E0D8F800108B0701D50FA628
:1008300002E0490701D50EA601251146002408F162
:10084000240704E000F0AAF830323A55641C50EA5C
:100850000102F7D12B46324621464046BDE8F04121
:1008600000F0E1B8000000002D0000002B000000A7
:100870002000000030B4002100F1240408E002F060
:100880000705D208303542EA4372DB086554491C3B
:1008900052EA0305F3D10468002310A2250708D506
:1008A00004F020040C4304D0C46901230CA2641E8C
:1008B000C46130BC00F0B7B810B5044621461068DA
:1008C000FFF7A7FE02462046BDE810400023D1E70F
:1008D000D21D22F00701D1E90023CBE70000000080
:1008E00030000000F0B40D460188090502D5214C06
:1008F0007C4402E01F4C7C440E34002100F12406AD
:1009000008E002F00F071209E75D42EA03721B09D3
:100910007754491C52EA0307F3D1027800231207E7
:1009200004D5702D06D009B1022311342246F0BC43
:1009300000F079B801231034F8E770B504460D468D
:1009400021461068FFF765FE024629462046BDE8AD
:1009500070400023C6E7D21D22F00703D3E900232D
:10096000C0E70368126843F0200303600823C361F3
:100970000023B7E7342D000001491820ABBEFEE785
:1009800026000200004870471800002010B500F053
:100990008FFC001D10BD00BF292C000030B5B0F148
:1009A0000A0271F100034FEA900E4EEA817EB0EB2D
:1009B0000E0061EB91014FEA101E4EEA017E10EB32
:1009C0000E0041EB11114FEA102E4EEA016E10EBB2
:1009D0000E0041EB11214FEA104E4EEA014E10EB92
:1009E0000E0041EB1141401841F100014FEAD000E7
:1009F00040EA41704FEAD1014FEA810444EA907421
:100A000010EB800544EB01046D1944EB0404521B08
:100A1000A3414FF0000348BF0A3200D530BD401C4F
:100A200041F1000130BD2DE9F0470D46994692464F
:100A3000044600F124080168880604D5E06921F025
:100A40001001216000E00120A84201DD471B00E009
:100A50000027A1697A1902EB0900081AA061207821
:100A6000C00602D42046FFF7A4FD002608E0D4E922
:100A700001211AF806009047206A401C761C20626B
:100A80004E45F4DB2078C0060AD52046FFF791FDDD
:100A900006E0D4E9012130209047206A401C206202
:100AA000381EA7F10107F4DC07E0D4E9012118F8AA
:100AB00005009047206A401C2062281EA5F1010510
:100AC000F3DC2046FFF78BFD2078000602D50220DC
:100AD000BDE8F0870120FBE72DE9FF4F0C461E46DD
:100AE0004FF0FF378BB0D2E90001DDF860800A904B
:100AF0008A46C1F30A5505B93D46002108464FF024
:100B00000000BAF1000F00F4400005DA00EB8000AD
:100B10004FF4400101EA50004FEA9059B9F1010F3A
:100B200000DDB9460A9850EA4A000ED044F610504B
:100B3000A5F2FF3545432F14B8F1000F1ED07542C2
:100B4000291E1EDDC9F100021CE0B8F1010F4FF0B3
:100B5000000001D0302103E0F24305E02154401CA5
:100B6000B042FBDB30460022002121540B99C1F832
:100B70000880C1E900200FB0BDE8F08FBD1B6D1CDF
:100B8000DEE74A4600DA694206A800F0D5FB06AB6C
:100B900093E8070003AB83E8070050460A9902F088
:100BA00011F98DE80700A0F500501F380090039858
:100BB000002D0ADD42F21F014A460844002303A922
:100BC0000390684602F07AFB09E0A0F500504A461F
:100BD0001F38002303A90390684602F084FB8DE8C8
:100BE00007000004000C03D04FF0FF30410800E084
:100BF0001046B8F1000F03D00022009215461EE007
:100C0000751E05D4FFF7CAFE303262556D1EF9D548
:100C1000B3460122084302D000227F1C04E0207862
:100C2000302801D100227F1E002A099784D01DE0C0
:100C3000112D07DAFFF7B2FE303262556D1C50EA13
:100C40000102F5D1084302D00098C8B10EE000219E
:100C5000681E05E0235C625C63542254401E491CFC
:100C60008142F7DBAB46A81B401E0990002004F828
:100C70000B000B98099AC0F80880C0E9002B7AE7AE
:100C800011264FF0000857E72DE9F04F884604463B
:100C9000D21D22F0070191B0D1E90001CDE90A018E
:100CA00002F058FC02460B98C00F01D02D2007E03F
:100CB0002068810701D52B2002E0202101EAC00035
:100CC000032A099001D0072A05DB03464146204646
:100CD00000F0F2FA0BE12078800601D5E06900E02F
:100CE0000620B8F1650F814606D0B8F1660F18D01E
:100CF000B8F1670F70D131E00020B9F1110F009009
:100D000001DB112301E009F101030AAA01A90CA8E2
:100D1000FFF7E2FEDDE90C70002609F101058346CC
:100D200047E001204B4600904FF000470AAA01A976
:100D30000CA8FFF7D1FEDDE90DB00C995D46002649
:100D400010B909F101000D18B9EB050003D4C0F189
:100D5000FF3609F10105A5EB09002BE0B9F1010F00
:100D600001DA4FF001090020B9F1110F0090484657
:100D700001DD112300E003460AAA01A90CA8FFF730
:100D8000ABFEDDE90C704D46002683462078000757
:100D90000AD4AB4500DA5D4601A8012D04DD4119F6
:100DA00011F8011C302907D04F4502DA17F1040F62
:100DB00004DA012082460FE06D1EEEE7002F02DC10
:100DC000ED1B3E4403E0781CA84200DD7D1CB81BEF
:100DD00000F1010A4FF000472078000703D4AA452C
:100DE00001DB4FF0FF3A0021B7F1004F0DF143084E
:100DF0008DF8431024D002202B23002F01DA7F42EC
:100E00002D230A21021EA0F1010000DC5FB197FB37
:100E1000F1FC97FBF1F201FB1C7C17460CF1300C46
:100E200008F801CDEEE7A8F101000370218809055B
:100E300001D5452100E06521A0F1010800F8011C61
:100E400009980FA9A1EB0807FF1D00B10120411966
:100E500001EBEA70A1693844081A401EA0612078AD
:100E6000C00602D42046FFF7A4FB099828B1D4E9B4
:100E700001219047206A401C20622078C00622D5BC
:100E80002046FFF796FB1EE0002E04DBB34502DD93
:100E900001A8805D00E03020D4E901219047206A5C
:100EA000401C2062761CAAF101005FEA000A0AD108
:100EB00000F0FEF9C0680168405CD4E90121904768
:100EC000206A401C2062281EA5F10105DCDC07E039
:100ED000D4E9012118F8010B9047206A401C2062D8
:100EE000381EA7F10107F3DC2046FFF778FB03204B
:100EF00011B041E62DE9F04F04460D46D21D22F017
:100F0000070089B0D0E900974846394602F022FB35
:100F10000246F80F01D02D2307E02068810701D594
:100F20002B2302E0202101EAC0038DF820300BB111
:100F3000012000E00020032A824601D0072A04DBBA
:100F40002946204600F0B8F93FE12078800601D418
:100F50000D2500E0E569C7F30A560D2D49DA002199
:100F60004FEA175B08464FF00000002F00F44000E6
:100F700007DA00EB80004FF4400100EBD07001EA8B
:100F800060008115012901DD4FF0FF3100224FEA99
:100F9000850CBCF1180F06D31346ACF118004FF0C6
:100FA0008052C24003E04FF4801323FA0CF30CF19B
:100FB0000C0CBCF1200F04D3ACF1200C09FA0CF09E
:100FC00001E007FA0CF000294FF0004801DD18B9E4
:100FD0000FE00ED140450CD319EB02095F4121B956
:100FE000404502D19F4329EA0209BBEB175F00D0BD
:100FF000761C2088000502D57B48784402E07A48B8
:101000007844193808AA302302F80A30037C0AF120
:101010000101002E0AF1020A53546A4602DC4FF025
:10102000300101E04FF031014FF001088DF8001060
:1010300002D0A6F2FF3603E059EA470100D06B4E1A
:10104000002D02DC2178090704D54FF002082E217B
:101050008DF80110C44600210BE0C7F303433F01A4
:10106000C35C491C6D1E02F80830052908F101080F
:1010700001DA002DF1DC00210CE000EB1973491CB2
:101080001B786D1E082902F808304FEA091908F18B
:10109000010801DA002DF0DC21688B0602D516E08C
:1010A000A8F10108E04505DD02EB080313F8013C57
:1010B000302BF5D0B8F1000F09DD02EB080313F86F
:1010C000013C2E2B03D1090701D4A8F10108002D02
:1010D00005DD3E2102F808106D1E08F10108407C74
:1010E000002E02F8080008F1010804DA2D207642EB
:1010F00002F8080002E02B2002F808000A214FF451
:101100007A70864208F101080BDB96FBF0F330336E
:1011100002F8083096FBF0F308F1010800FB1366B3
:1011200001E0642E0CDB642096FBF0F3303302F810
:10113000083096FBF0F308F1010800FB136601E0AC
:101140000A2E06DB96FBF1F0303002F8080008F1B9
:10115000010896FBF1F001FB1060303002F8080046
:10116000A16908F1010808EB050202EB0A00081A60
:10117000A0612078C00602D42046FFF71AFA216A3F
:1011800008AE01EB0A00206204E0D4E9012116F860
:10119000010B9047BAF1010AF7D22078C00602D5B8
:1011A0002046FFF706FA6E4609E016F8010B3E28C6
:1011B0000FD0D4E901219047206A401C2062B8F189
:1011C0000108F2D22046FFF70AFA09B00320BDE871
:1011D000F08F206A2844206203E0D4E90121302006
:1011E00090476D1EEBD3F8E76526000002FCFFFF79
:1011F00010B5436913B1AFF3008001E0FFF79EFA29
:10120000012010BD128800F1240182840022C284D2
:101210000122EDE711684FF0FF32E9E72DE9F041D7
:1012200016460C460546FFF7B1FB036893F801012B
:10123000012807D0FF2C12D8185D80B101202C7036
:10124000BDE8F081D3F807013246214603F20713C7
:10125000C7182846BC46BDE8F041002360474FF060
:10126000FF30EDE770477546FFF78CFBAE46050093
:101270006946534620F00700854618B020B5FFF7B1
:1012800035F8BDE820404FF000064FF000074FF062
:1012900000084FF0000BAC46ACE8C009ACE8C00950
:1012A000ACE8C009ACE8C00921F007018D467047E1
:1012B00000487047380000202DE9F0411F460446E1
:1012C00003260168072A01F4006004DB08B116A5B3
:1012D00005E016A503E008B115A500E015A521F06D
:1012E00010002060A069C01EA0610FB1401EA06167
:1012F0002046FFF75EF94FB1D4E901213846904707
:10130000206A401C2062C01C206206E0206AFAE7C6
:10131000D4E9012115F8010B9047761EF8D220463A
:10132000FFF75DF9BDE8F0814E414E006E616E0041
:10133000494E4600696E66002DE9F0478146164623
:101340008AB0354878440DC88DE80D00324878449D
:10135000801C03AC0DC884E80D0041F69B300844A6
:10136000372190FBF1F290FBF1F5A5F1800501FB2F
:1013700012041B3C02D56442012000E00020DFF88B
:1013800098A080460027FA44AAF1BE0A0EE0E007C2
:101390000AD03246684607EB470101230AEB810178
:1013A00001F0A1FF8DE8070064107F1C002CEED136
:1013B000194F7F44AE3F19E0E80715D007EB041042
:1013C0000DF1180A90E80E008AE80E00C068F0429D
:1013D00001D1981908903246012306A903A801F00B
:1013E00082FF03AB83E807006D10641C002DE3D17E
:1013F0004FF0010332466946B8F1000F03A802D04E
:1014000001F05CFF01E001F06EFFC9E90001C9F8DD
:1014100008200AB0BDE8F087AC23000010B50446F0
:10142000AFF300802046BDE81040FEF74ABF000041
:1014300030B44FF0013C50F8042B51F8043BCCFA87
:1014400052F4D51A20D1FCB950F8042B51F8043BC2
:10145000CCFA52F4D51A17D1B4B950F8042B51F87C
:10146000043BCCFA52F4D51A0ED16CB950F8042BC7
:1014700051F8043BCCFA52F4D51A05D1002CDAD03D
:1014800030BC4FF00000704729BAB1FA81F111F079
:101490001801D1F120008440F2D1CA40CB4012F0B3
:1014A000FF0213F0FF0330BCD01A7047FEE70000C4
:1014B00070470000FEE70000FEE7000070470000F4
:1014C00000F0070080F00702042A28BF04224FF032
:1014D000FF33033803FA02F238BF0020914301FAC8
:1014E00000F0704700F0070080F00703042B28BFCE
:1014F00004234FF0FF3C03380CFA03F338BF0020FD
:10150000994381400CFA00F022EA0000084370473A
:101510007047000070470000704700004EF688508A
:10152000CEF20000026841F2000142F47002C4F2FF
:10153000020102600A6842F001020A600A6892072A
:10154000FCD54A6822F003024A6000BF4A6812F0E4
:101550000C0FFBD10A684FF6FF73CFF6F2631A4007
:101560000A6000224A600A634FF41F028A604FF04B
:10157000006140F8801C704710B541F20004C4F2CD
:1015800000042046012101F0D5F8002808BF10BD55
:1015900000F004FB2046012101F0C8F810BD000056
:1015A00010B541F20044C4F200042046012101F0CC
:1015B000C1F8002808BF10BD40F22420C2F200008C
:1015C000006880472046012101F0B0F810BD0000FE
:1015D000B0B543F60004C4F201042046202101F016
:1015E000EBF840F20405C2F2000558B1204601F0C4
:1015F000C9F829886A684B1C2B805054204620214A
:1016000001F0D2F82046102101F0D6F8002808BFDA
:10161000B0BD2046102101F0C7F801202872B0BDEE
:10162000FEE70000002848BF704700F01F010122BC
:1016300002FA01F14EF200124009CEF2000242F825
:10164000201070474EF60C50CEF200000068C0F338
:10165000022070474EF60C50CEF200000068C0F336
:10166000022070474EF61452090100F00F00CEF22E
:1016700000028154704700004EF6145300F00F0230
:10168000CEF2000309011A4400F16043B0F1FF3FBC
:10169000C8BF03F564421170704700004EF60C514C
:1016A000CEF200010A684FF6FF031A4060F30A22E7
:1016B00042F0806040F0FD70086070472DE9F04313
:1016C00081B040F22425C2F200056868804740F2EC
:1016D000780640F20017C2F20006C2F20007317825
:1016E0003A780446914204D033A000F035FA3878B5
:1016F00030703878032855D8DFE800F00209223D21
:1017000000F054FC00284DD0BC60012050E0686817
:1017100080476968BE6805468847B968B542C1F127
:10172000000138BFC6F100410844B0F1804F3EDAF5
:10173000022837DB00F03AFCC8B37C60022037E0B7
:101740006868804769687E68804688477D6881460A
:1017500000F02CFC48B36842B04538BFC6F10040E9
:10176000484464281EDB00F04DFD032038707C6087
:1017700001B0BDE8F0836868804769687E68044608
:1017800088477968B442C1F1000138BFC6F1004111
:101790000844B0F1804F0AD200F008FC002804BFD2
:1017A0000020387001B0BDE8F08300F03DFD00205E
:1017B000387001B0BDE8F0835374617465206368CC
:1017C000616E6765643A202564202D3E2025640AF9
:1017D0000000000041F20401C4F202010A6800F0B6
:1017E0000F0022F0F00242EA00100860704700008B
:1017F00041F20401C4F202010A6800F0070022F479
:10180000E06242EA002008607047000041F20401F3
:10181000C4F202010A6800F0070022F4605242EAB2
:10182000C02008607047000041F25401C4F2020178
:101830000A68012822F0300208BF30320A6070477F
:10184000042888BF7047DFE800F0030C19262F003A
:1018500041F20000C4F20200026861F3000202607B
:10186000704741F20000C4F20200026801F0010179
:1018700022F4803242EA01410160704741F20000E7
:10188000C4F20200026801F0010122F0807242EA13
:1018900001610160704741F20000C4F20200026A77
:1018A00061F300020262704741F20000C4F20200DC
:1018B000426A61F3000242627047000070B541F273
:1018C000040541F200260446C4F20205C0F27A067D
:1018D00000F01AF902280BD090BB286D80052FD597
:1018E000E86A800144BF46F60046C0F2DC2627E0E5
:1018F000286829682A68C1F38341C2F34172130141
:101900000133002A1A4608BF02220F2908BF1A46CF
:10191000C00302EB010006D440F60011C0F23D0105
:1019200000FB01F60CE02968890301D4464307E077
:10193000296DC1F301310231B6FBF1F101FB00F673
:101940002660286811A1C0F30310085C216813A267
:1019500021FA00F060602968C1F30221515C20FA8D
:1019600001F1E1602968C1F3C221515C0422C84041
:10197000A06029682B6802EA9161C3F381321144A7
:1019800008A2515CB0FBF1F0206170BD00000000C6
:10199000000000000102030406070809000000001F
:1019A0000102030402040608020C081041F20002BE
:1019B000010CC4F20202895800F01F0021FA00F065
:1019C00000F001007047000010B500241120FFF75F
:1019D000EDFF210B022903D8012804F10104F5D100
:1019E0001120FFF7E3FF0138B0FA80F0400910BD85
:1019F00041F2000200F01F034FF0010CC4F202029A
:101A000001290CFA03F14FEA1040835814BF23EA6E
:101A1000010119438150704780B541F2040EC4F2B0
:101A2000020EDEF800C070B14CF48033CEF8003006
:101A3000DEF800C0012814BF4CF400302CF4003054
:101A4000CEF8000009E02CF48030CEF80000DEF87B
:101A50002C0040F00070CEF82C00DEF8000061F39E
:101A60009540CEF80000DEF80000C1F3021161F3EA
:101A70005E70CEF80000DEF8000020F0004040EA82
:101A8000C270CEF8000080BD41F20000C4F2020036
:101A9000016841F00101016001688907FCD54168D6
:101AA00021F00301416000BF416811F00C0FFBD130
:101AB00001684FF6FF72CFF6F2621140016000211B
:101AC000416001634FF41F018160704741F20401DE
:101AD000C4F202010A6860F301020A6000BF00BF9D
:101AE00000BF00BF00BF00BF00BF00BF00BF00BFFE
:101AF00000BF00BF00BF00BF00BF00BF00BF00BFEE
:101B000000BF00BF7047000041F20400C4F20200B1
:101B10000068C0F38100704710B540F20404C2F2BF
:101B20000004207A012818BF10BD07A000F014F8A7
:101B30006168228843F60000C4F2010000F000FF53
:101B4000204600F0E7FB10BD706F72742072656371
:101B500076206F6B0A00000083B010B581B040F2B0
:101B60007904844603A8C2F200040EC003AB2046E9
:101B7000802162460093FEF7CBFB2046FEF7D0FCA7
:101B800082B243F60000C4F20100214600F0D8FE04
:101B900001B0BDE8104003B07047000040F2FC0007
:101BA000C2F200000168013101607047F0B583B0F6
:101BB0000424C0F21804204601210126FFF718FF73
:101BC000601C0121FFF714FF01AC204600F096F8DD
:101BD00040F600054FF40050C4F20105019028279B
:101BE00005F500602146ADF8097000F091F828462F
:101BF00021460196ADF8097000F08AF840F20C1009
:101C0000C2F200000021017003B0F0BD70B582B0D7
:101C10000520C0F218000121FFF7EAFE6C462046BD
:101C200000F06CF841F20045C4F2010528464FF47B
:101C300040414FF4404600F05FF840F20040C0F2EF
:101C40001020019028462146009600F061F802B06D
:101C500070BD000080B540F22420C2F20000406850
:101C6000804740F22C11C2F200010A79022A06D004
:101C7000012A11D0CAB901220A71086080BD08602A
:101C80000020087100F016F8014643F2F470C0F627
:101C90000000FFF761FF80BD0A68821A642A38BF1E
:101CA00080BD08600220087180BD086000200871B6
:101CB00080BD000040F2F900C2F20000017800206F
:101CC000FF2908BF704740F23412C2F2000200BF81
:101CD00049B201EB410102EB8101097A0130FF2990
:101CE000F6D1704740F21000C2F2000090F90000F7
:101CF00070470000416170470161704740F2004247
:101D00004FF6FF71C0F20012C0E9001270470000E8
:101D1000B0B58B790A88032B0BD07BB94979282978
:101D200001F00F0E18D0182908BF0261110616D154
:101D30002EE04FF0000E110611D129E003F0080C3F
:101D40000B79C97903F00403634401F0030103EB49
:101D5000010E110603D11BE04261110618D00023C9
:101D60004FF00F0C002104E00131082903F10403B6
:101D70000ED022FA01F4E407F6D004680CFA03F559
:101D8000AC43046004680EFA03F52C430460EBE7EF
:101D9000B2F5807F38BFB0BD120A00234FF00F0CA0
:101DA000002104E00131082903F104030ED022FAD6
:101DB00001F4E407F6D044680CFA03F5AC43446040
:101DC00044680EFA03F52C434460EBE7B0BD000015
:101DD00080680840401AB0FA80F04009704700005F
:101DE000B0B5C0F3072353FAA0F3C0F30742C3F121
:101DF00020034FF0FF3E2EFA03F40EFA02F340F2F6
:101E0000000E4FEA106CC4F2010E5CF80E50234035
:101E100025EA0303C0B29040002918BF03434CF8E1
:101E20000E30B0BD026801F0010122F4806242EA86
:101E300081210160704700000268002922F08002C1
:101E400008BF803202607047026861F300020260DE
:101E500070470000026801F0010122F0400242EAEE
:101E6000811101607047000070B586B004460068BB
:101E7000154620F00100206001A80E46FFF71EFD68
:101E800045F20040C4F2000084420BD045F6004009
:101E9000C4F20100844207D045F60000C4F20000FD
:101EA000844203D1049902E0039900E000214DF639
:101EB0008360C4F21B30A1FB000248F2A060C0F2B4
:101EC0000100636885424FEA924060F30703636054
:101ED0001ED86A00B1FBF2F2E3694FF6FC7632429B
:101EE0006FF31F3240F6FF7608BF0422B3431A4453
:101EF000E261E26944F6C053C0F2C13322F4004209
:101F00009942E2610BD354F8200F40F03F013CE0CE
:101F10005EB1E36919226A4343F480430AE054F84E
:101F2000201F013060F305012FE0E36905EB450256
:101F300023F48043B1FBF2F1E361E2690B046FF338
:101F40001F3140F6FF7308BF01219A431144E1613C
:101F5000E16941F6802241F40041C0F20602954257
:101F6000E16187BFC0EB0010C0004FF49671484399
:101F700044F6D351C1F26201A0FB0102012054F8E2
:101F8000201F00EB921060F30501216006B070BDC8
:101F9000836801F0010123F4004343EAC131816009
:101FA000816862F3090181607047000080B540F6E6
:101FB0000000C4F201000121FFF70AFF002818BF4A
:101FC000012080BDB0B540F22420C2F2000040687C
:101FD000804740F21014C2F20004217803290CD08B
:101FE00002291AD0012938D140F21411C2F200019D
:101FF0000A68821A022A09D2B0BD40F21411C2F254
:1020000000010A68821A322A38BFB0BD0222086075
:102010000120227000F082F8B0BD40F21411C2F22B
:1020200000010A68821A322AE6D3032208600020DF
:102030002270002500F072F840F21810C2F2000081
:1020400001780131CAB2052A0170D5D340F21C10C3
:10205000C2F2000025700570B0BD40F21C110020D6
:10206000C2F2000120700870B0BD000080B540F2DF
:102070002420C2F200004068804740F22011C2F2E2
:1020800000010A78032A2CD8DFE802F002330A1E86
:1020900040F22412C2F2000210600120087080BDDC
:1020A00040F22412C2F200021368C31A322B1FD36B
:1020B0000323106041F200400B70C4F201004FF4A2
:1020C0000051FFF719FE80BD40F22412C2F2000257
:1020D0001368C31A022B38BF80BD00230B70106039
:1020E00080BD00220A7040F22411C2F20001086093
:1020F00080BD40F22412C2F200021368C31A322BD0
:10210000F6D30223106041F200400B70C4F20100CC
:102110004FF40051FFF7EEFD80BD000080B50028B0
:1021200041F20040C4F201004FF4004102D0FFF739
:10213000E1FD80BDFFF7E0FD80BD000000F06AFD1D
:1021400000F0F4FC00F022FC00F09AFC00F0AAFD84
:1021500000F0EAFD00F01AFD00F054FC00F0C6FDAE
:1021600000F01EFCFFF752FDFFF720FD41F200409A
:10217000C4F201004FF40051FFF7BEFD00F05CFA1D
:1021800041F6C571C0F60001012000F007FA41F2E6
:10219000BD61C0F60001022000F000FA41F6554191
:1021A000C0F60001032000F0F9F941F61931C0F63C
:1021B0000001042000F0F2F942F26D01C0F60001C6
:1021C000062000F009FA00F045F800F07DFA00BFA3
:1021D00000F054FAFCE7000070B514460D460646C0
:1021E000FFF738FA29462246FFF77CF901463046C8
:1021F000FFF742FA3046FFF715FA70BD80B5FFF7DA
:102200004DFA80BD80B503A0FFF7A6FC00F016F9DB
:1022100080BD00BF4C4F4E472054494D4520484F8C
:102220004C440D0A0000000080B540F22811C2F2B3
:1022300000010A7841F200400132C4F20100D307E4
:102240000A704FF4804102D1FFF756FD80BDFFF7C1
:1022500051FD80BD10B516A0FFF77EFC43F29674C9
:10226000C0F600042046FFF777FC43F26870C0F622
:102270000000FFF771FC43F2C670C0F60000FFF7E4
:102280006BFC43F23A70C0F60000FFF765FC43F2C6
:102290000C70C0F60000FFF75FFC06A0FFF75CFCC7
:1022A00010A0FFF759FC2046FFF756FC10BD00BFF9
:1022B0000A000000205F5F5F5F29207C2020202033
:1022C0007C207C202020207C207C207C207C207C8A
:1022D000207C207C207C202020207C207C20202032
:1022E0000A0000007C5F5F5F5F5F2F2020202020BE
:1022F0007C5F7C202020207C5F7C207C5F7C207C9D
:102300005F7C207C5F7C202020207C5F7C20202044
:102310000A00000080B500210180017240F23420E3
:10232000C2F20000FF21FEF71AF980BD0021C0F8BB
:10233000031001600121C17170470000026801F0C3
:10234000010122F0400242EA811101607047000061
:10235000C26922F40062C2610A78032A27D8DFE842
:1023600002F00206121A026822F400420EE002682D
:1023700022F400420260026822F480420260026895
:1023800042F4806212E0026842F400420260026895
:1023900022F4804206E0026842F4004202600268D1
:1023A00042F480420260026822F480620260CA79CC
:1023B000036802F0010223F4007343EA4222026040
:1023C0004A78012A06D1CA79012A03D1026842F467
:1023D000807202E0026822F4807202604A78036828
:1023E00062F3820303608A784368072A23F48073C8
:1023F00088BF03F5807343608A78036862F3C5037E
:102400000360CA78036802F0010223F0800343EA04
:10241000C21202600A79036802F0010223F4006329
:1024200043EAC22202604A79036862F3410303600F
:102430008979026861F3000202607047B0B540F22A
:102440001C14C2F200042078002818BFB0BD40F26E
:102450002421C2F2000140F210104968C2F20000CB
:1024600001250570884740F21411C2F2000108608E
:1024700040F21810C2F20000002101702570B0BDBA
:10248000B0B541F2040441F20025C4F20204C0F2E6
:102490007A05FFF739FB02280BD090BB206D800531
:1024A0002FD5E06A800144BF46F60045C0F2DC2526
:1024B00027E0206821682268C1F38341C2F341729A
:1024C00013010133002A1A4608BF02220F2908BF50
:1024D0001A46C00302EB010006D440F60011C0F218
:1024E0003D0100FB01F50CE02168890301D445435F
:1024F00007E0216DC1F301310231B5FBF1F101FBC0
:1025000000F540F20000C2F200000560216804A25C
:10251000C1F30311515C026822FA01F10160B0BD00
:102520000000000000000000010203040607080983
:102530004EF21001CEF200010A68042822F00402D3
:1025400008BF04320A60704710B540F2F902C2F2C7
:1025500000021078FF281DD0EFF3108C72B692F9AC
:1025600000E040F234100EEB4E03C2F2000000EB2C
:1025700083035989187A4AF65524A142107007D16D
:10258000002058605FFA8EF08CF3108840B210BDC6
:102590008CF31088FF2040B210BD0000B0B50C468F
:1025A0000546FFF7D1FF411C13D040F2341200EB77
:1025B0004001C2F2000202EB810302F8215040F216
:1025C0001001C2F200010A78087040B25C601A7211
:1025D000B0BDFF2040B2B0BDB0B50C460546FFF718
:1025E000B3FF411C4FF0FF0C20D040F2341100EB40
:1025F0004002C2F2000101F8225040F21005C2F27E
:10260000000501EB82032A785C60FF2A83F808C08A
:102610000FD000BF52B202EB420201EB820313F86B
:10262000082FFF2AF6D1187040B2B0BDFF2040B28B
:10263000B0BD287040B2B0BD40F2341CC2F2000CF4
:10264000ACF10C0101224AF6552300200A75013233
:10265000CB820861142A01F10C01F7D140F2F90193
:10266000C2F2000100220A7040F21001FF20C2F203
:1026700000018CF8EC00087070470000B0B5FFF75F
:1026800031FB411C08BFB0BD40F23414C2F200045B
:1026900040B200EB400004EB80056868002818BFDA
:1026A0008047287AFF28F3D1B0BD000040F22420F3
:1026B000C2F200008068704740F22420C2F200009D
:1026C000816801318160704780B540F2242042F278
:1026D000AD6242F2B963C2F200000021C0F600020E
:1026E000C0F60003C0E90032816041F20040C4F24C
:1026F00000000121012200F023F880BDC162826246
:10270000416941F00101416170470000026801F038
:10271000070122F0700242EA0111016070470000D7
:10272000026861F30002026070470000C943016162
:10273000704700000069084018BF01207047000082
:1027400032B1012A18BF7047C2681143C160704797
:10275000C26822EA0101C16070470000026801F00E
:10276000010122F0800242EAC111016070470000BD
:10277000426801F0070122F0700242EA0111416053
:1027800070470000406880B2704700006FF35F211F
:1027900041607047C26801F0010122F4005242EA30
:1027A0004131C16070470000CA0602D0016840682C
:1027B0007047C943016070470068084018BF012096
:1027C00070470000032988BF7047DFE801F002135B
:1027D000060A416921F480710FE0416921F480719A
:1027E00002E0416941F480714161416941F4007145
:1027F00041617047416941F480714161416921F44F
:1028000000714161704700002DE9F04186B001ADD3
:1028100004462846984616460F46FFF74FF846F2FC
:10282000FF30C4F20100844208DC43F60000C4F229
:10283000010084420ED046F2000007E046F6000098
:10284000C4F20100844205D046F20040C4F2010007
:1028500084422FD105F1080000684CF6CD4100EB11
:1028600080004000B0FBF7F0CCF6CC41A0FB011299
:10287000D10801EB8103A0EB43000428A0684FF0CE
:10288000010388BF03EBD201C1EA0000A060E06849
:1028900006F0010120F4805040EA0130E060206938
:1028A00008F0030120F4405040EA0130206106B0F6
:1028B000BDE8F08105F10C00CEE7000001F01F0338
:1028C0004FF0010C012A0CFA03F24FEA11410B58A8
:1028D00014BF23EA02021A430A50704702290DD09E
:1028E00001290FD0002918BF7047C16821F4007179
:1028F000C160C16821F48061C1607047C16841F462
:10290000007102E0C16821F40071C160C16841F446
:102910008061C16070470000C26801F0010122F0CF
:10292000040242EA8101C16070470000C26801F000
:10293000010122F0080242EAC101C16070470000B3
:10294000F0B581B014460D46064600BF30468021E2
:10295000FFF732FF0028F9D030468021FFF724FF2F
:102960008CB10027E95D3046FFF710FF304640216B
:10297000FFF722FF0028F9D030464021FFF714FF6F
:102980000137A742EED101B0F0BD000080B540F2A2
:102990000230C3F210000121FFF722FA80BD0000CF
:1029A00070B582B06C462046FFF7A8F941F20045A9
:1029B0004FF40050C4F2010500902826A5F5806070
:1029C0002146ADF80560FFF7A3F901200090A5F5B9
:1029D00040602146ADF80560FFF79AF928464FF4AC
:1029E00060414FF46046FFF785F940F20040C0F2C5
:1029F0001020CDE9006028462146FFF789F902B092
:102A000070BD0000F0B583B001AD2846FFF776F940
:102A100045F20044C4F2000440F20447402004F5AB
:102A20003846C0F208270190304629460297FFF742
:102A30006FF980200190304629460297FFF768F928
:102A400048F2A062C0F2010220460021FFF70CFA12
:102A5000204600210022FFF79BFA20460121FFF7C4
:102A6000E1F920460121FFF7E7F920460021FFF7B1
:102A7000F1F920460121FFF7E7F903B0F0BD0000AE
:102A800080B50320FFF7BAFBFEF7DCFD0021FEF75F
:102A900017FD01466FF00B00FEF7E4FDFEF7D2FDD7
:102AA0000021FEF70DFD01466FF00A00FEF7DAFD8A
:102AB000FEF7C8FD0021FEF703FD01466FF0090097
:102AC000FEF7D0FDFEF7BEFD0021FEF7F9FC014642
:102AD0006FF00400FEF7C6FDFEF7B4FD0021FEF71F
:102AE000EFFC01466FF00300FEF7BCFDFEF7AAFD08
:102AF0000021FEF7E5FC01466FF00100FEF7B2FD94
:102B0000FEF7A0FD0F21FEF7DBFC01464FF0FF3082
:102B1000FEF7A8FD252006210022FFF75DFB3720E8
:102B200005210022FFF758FB80BD000010B54FF4CF
:102B3000C0100121FEF75CFF0224C0F218042046F9
:102B40000121FEF755FF601C0121FEF751FFA01C7B
:102B50000121FEF74DFFE01C0121FEF749FF04F1C2
:102B60000A000121FEF744FF04F10C000121FEF7E9
:102B70003FFF0524C0F21C0420460121FEF738FF68
:102B800004F110000121FEF733FF10BDF0B585B050
:102B900003AD2846FFF7B2F801AC2046FFF7C6FBAD
:102BA00040F6000640F200472020C4F20106C0F2C1
:102BB00008270390304629460497FFF7A9F840F20A
:102BC0000040C0F200200490402003903046294687
:102BD000FFF79EF880200390304629460497FFF7C0
:102BE00097F840F20010C0F20100019000208DF82B
:102BF0000800ADF80900012006F520558DF80B00FE
:102C000028462146FFF7A4FB28460121FFF796FB43
:102C100005B0F0BD10B5FEF737FF04200121FEF727
:102C20000FFE0124C0F224042046FEF7BFFE012857
:102C3000FAD101200121FEF703FE00BFFEF7C4FE1A
:102C40000028FBD000200121FEF7FAFD0120FEF74D
:102C5000ADFE0128FAD101201D210122FEF7DCFE84
:102C600002200121FEF7ECFD1920FEF79FFE01284E
:102C7000FAD10020FEF7AEFD0420FEF7C7FD0420C8
:102C8000FEF7B6FD0120FEF7CFFD0220FEF71EFF86
:102C9000FEF73AFF0228FBD10020FEF7C5FDFFF743
:102CA000EFFB10BDB0B586B001A8FEF707FE029C91
:102CB00000200025FFF73CFC4DF68360C4F21B307A
:102CC000A4FB0001480D40F23021C2F2000108606F
:102CD0004EF21000CEF200006FF07F41856041603F
:102CE000016841F00101016006B0B0BD10B541F2CC
:102CF0000044C4F2000420460021FFF707FD2046EF
:102D00000121FFF72BFD204640F2E73140F65F122C
:102D1000FFF7F4FC20460021FFF72AFD20460121A1
:102D2000FFF7FEFC10BD000070B582B06D4628466E
:102D3000FEF7E4FF40F2004043F60004C0F2082032
:102D4000C4F2010401904FF40070A4F540560090C5
:102D500030462946FEF7DCFF40F20040C0F200207A
:102D600001904FF48060009030462946FEF7D0FF76
:102D700020464FF4E13100220023FFF745FD2046B5
:102D80000121FFF7D3FD20460121FFF7C5FD2046B5
:102D90000021FFF7A3FD20460021FFF713FD0425C6
:102DA000C0F20C05691C20460122FFF787FD204672
:102DB00029460122FFF782FD20460121FFF7EAFCA8
:102DC00002B070BD5FEA400C08BF91F0000F4FEAFF
:102DD0008C234FEAC12243EA51514FEA1C5018BFDD
:102DE00000F5F0404FEA300018BF41F000415FEAC3
:102DF0006C5C00F02980BCF1FF3F08BF40F08040D0
:102E00007047130C06BF12044FF0100C4FF0000C6B
:102E1000130E04BF12020CF1080C130F04BF1201B1
:102E20000CF1040C930F04BF92000CF1020CD30FB1
:102E300004BF52000CF1010C11464FF00002A0F14A
:102E40001F00A0EB0C00704711F0004F08BF704747
:102E500031F000413FF4D5AF0B0C06BF09044FF031
:102E6000100C4FF0000C0B0E04BF09020CF1080C03
:102E70000B0F04BF09010CF1040C8B0F04BF890078
:102E80000CF1020CCB0F04BF49000CF1010CCCF18A
:102E9000200322FA03F341EA030102FA0CF2A0EB49
:102EA0000C0000F10100704723F07F4720F07F4CB9
:102EB00080EA030000F00040ACEB070303F57C530D
:102EC00003F1FF032DE9804909B44FEA144324EAD2
:102ED00003484FEA154B25EA0B4E0FF2042606EB8A
:102EE00013273E7803FB0667C7F5000707FB06F6C6
:102EF0004FEAD64606F102064FEA543707FB066C46
:102F0000CCF1005C4FEA1C472CEA074C0CFB06F5A1
:102F100007FB06F404EB15464FEA961649085FEAEC
:102F2000320234BF00204FF000404FEAD13706FB99
:102F300007FC4FEA1C4C0CFB0BF7D21B03FB0CF7F6
:102F400061EB07010CFB0EF7B0EB074072EB174289
:102F50000CFB08F734BFA2EB0742B2EB074261EB70
:102F600017414FEA0C444FEA910706FB07FC4FEA72
:102F70001C4C0CFB0BF7B0EBC74072EB573203FB5A
:102F80000CF734BFA2EBC742B2EBC74261EB57313B
:102F90000CFB0EF7B0EBC70072EB57720CFB08F797
:102FA00034BFA2EBC702B2EBC70261EB57714FEA25
:102FB000816141EA92114FEA826242EA90124FEA3D
:102FC000806004EBCC04039F4FEAD13706FB07FC7B
:102FD0004FEA1C4C0CFB0BF7D21B03FB0CF761EB0D
:102FE00007010CFB0EF7B0EB074072EB17420CFB2E
:102FF00008F734BFA2EB0742B2EB074261EB17417F
:103000004FEA8C5504EB9C244FEA910706FB07FC22
:103010004FEA1C4C0CFB0BF7B0EBC74072EB57327E
:1030200003FB0CF734BFA2EBC742B2EBC74261EB24
:1030300057310CFB0EF7B0EBC70072EB57720CFB6D
:1030400008F734BFA2EBC702B2EBC70261EB5771BE
:103050004FEA816141EA92114FEA826242EA90129C
:103060004FEA806015EB4C2544F100044FEAD1375C
:1030700006FB07FC4FEA1C4C0CFB0BF7D21B03FBB7
:103080000CF761EB07010CFB0EF7B0EB074072EB9E
:1030900017420CFB08F734BFA2EB0742B2EB074222
:1030A00061EB17414FEA813141EA92414FEA8232A6
:1030B00042EA90424FEA80304FEA0C7615EB1C153D
:1030C00044F1000448EA03434EEA0B484FF0000E77
:1030D000B2EB080C71EB030724BF624639464EEB96
:1030E0000E0E4FF0000B0018524149414BEB0B0BF9
:1030F000B2EB080C71EB03077BF1000B24BF6246B7
:1031000039464EEB0E0E4FF0000B0018524149416C
:103110004BEB0B0BB2EB080C71EB03077BF1000BD5
:1031200024BF624639464EEB0E0E51EA020718BF25
:1031300046F0010616EB0E7655F1000254F100013F
:1031400003D5BDE88901BDE80088BDE88901BDE877
:103150000048B619524141EB0101A3F10103704748
:1031600080807F7E7D7C7B7A7978777676757473C4
:10317000727171706F6E6E6D6C6C6B6A6A69686883
:10318000676666656464636362616160605F5F5E19
:103190005E5D5D5C5C5B5B5A5A595958585757568F
:1031A00056555555545453535252525151505050F4
:1031B0004F4F4F4E4E4D4D4D4C4C4C4B4B4B4A4A46
:1031C0004A4949494848484747474746464645458A
:1031D00045444444444343434342424242414141C3
:1031E0009C46002B30D477002BD04FEA37071CB514
:1031F00003B44FF010004FF01001BAF1000F06D0E9
:10320000BCF1000FDCBF40F0080040F008014FF0B7
:1032100000000FBCBDE810400BF1010BBBF1010F2A
:1032200008BF5FEA170722BF12F1010211F1010185
:103230004FF0004143F1000300F0004043EA00007A
:103240007047F9D35708D0E746EA06464FEA1646D4
:1032500013F1400F1FDD13F1200FDFBF16430A46A5
:10326000002120335B42BED0C3F1200746EA064668
:103270004FEA164602FA07F746EA070622FA03F271
:10328000C3F1200701FA07F742EA070221FA03F126
:103290004FF00003A7E746EA020646EA06464FEA71
:1032A000164646EA0106BCBF46EA0646360C4FF013
:1032B00000034FF000024FF0000194E72DE9804C2D
:1032C00070B49A46934691E8380007C831EA400C3A
:1032D00048BF34EA430C03D5FFF7E6FDFFF780FF54
:1032E000F0BCBDE8008C2DE9804C70B49A46934642
:1032F00091E8380007C810F0804F08BF13F0804FE6
:1033000003D100F005F8FFF76BFFF0BCBDE8008CBF
:1033100020F07F4723F07F4C80EA030000F000405C
:1033200007EB0C03A3F57C53A3F1FE0392F0000F0F
:1033300000F0B38095F0000F00F077802DE901498F
:103340004FEA114021EA00484FEA144624EA0647B2
:1033500000FB06FC08FB06F607FB08F818EB06481E
:103360004CEB164C00FB07F718EB07484CEB1740EB
:103370004FEA124B22EA0B4E4FEA154625EA064762
:103380000BFB06FC0EFB06F607FB0EFE1EEB064EC5
:103390004CEB164C0BFB07F71EEB074E4CEB174B99
:1033A00018EB0B0840F1000018EB0E0B58EB00086F
:1033B00040F100008F1A4FF000014FF000063CBFB3
:1033C000C943661B14BFB5EB040C00213CBFC943C5
:1033D000F61B4FEA174427EA04454FEA1C472CEA3C
:1033E000074C04FB076205FB07F70CFB05F616EB21
:1033F000074642EB174204FB0CFC16EB0C4642EB73
:103400001C421BEB060658EB020241414EEA8E0EAF
:1034100046EA9E0601D5BDE80189B619524141EB45
:103420000101A3F10103BDE801894FEA144524EA33
:1034300005464FEA114721EA074C05FB07F406FB56
:1034400007F70CFB06F111EB074144EB174405FBB2
:103450000CFC11EB0C4144EB1C444FEA124722EAEE
:10346000074C05FB07F206FB07F70CFB06F616EB0D
:10347000074642EB174205FB0CFC16EB0C4642EBF1
:103480001C456A1854F1000148BF7047B6195241F3
:1034900041EB0101A3F10103704795F0000F37D014
:1034A0004FEA114221EA02464FEA144724EA074C48
:1034B00002FB07F106FB07F70CFB06F414EB0744CD
:1034C00041EB174102FB0CFC14EB0C4441EB1C419B
:1034D0004FEA154725EA074C02FB07F506FB07F7FD
:1034E0000CFB06F616EB074645EB174502FB0CFCFA
:1034F00016EB0C4645EB1C42121951F1000148BF76
:103500007047B619524141EB0101A3F10103704725
:103510004FEA144524EA05464FEA114721EA074CD1
:1035200005FB07F106FB07F70CFB06F212EB07425F
:1035300041EB174105FB0CFC12EB0C4251EB1C411B
:103540004FF0000648BF7047921841EB0101A3F10C
:103550000103704703B401984100009850EAC1206C
:1035600018BF04204A0D18BF40F0010040F2FF725E
:10357000B2EB515F08BF40F00200012808BF0520F0
:1035800002B0704730380A2801D20120704700206D
:103590007047000010B500290AD00878002807D02D
:1035A00005487844FDF744FF002801D0002010BDF5
:1035B0000248784410BD0000820200007A02000038
:1035C00010B500290AD00878002807D005487844AB
:1035D000FDF72EFF002801D0002010BD02487844DE
:1035E00010BD0000720200006A020000F1EE100A35
:1035F0004FF6FF71C0F2C03120EA010040F0407088
:10360000E1EE100A7047FDF73FBBFDF773BC040005
:10361000000800000000000000020001000010008F
:1036200000000000000000003031323334353637FE
:1036300038394142434445464030580030313233F6
:1036400034353637383961626364656640307800F6
:103650003031323334353637383961626364656608
:10366000787000303132333435363738394142439F
:10367000444546585000000002400000000000A0F1
:103680000000000005400000000000C8000000002D
:103690000C4000000000409C0000000019400000A9
:1036A0000020BCBE0000000034400000BFC91B8EDB
:1036B00000000004B5400000504BCFD06607E2CFB9
:1036C000010000006C4100003E8251AADFEEA734E9
:1036D00001000000D9420000DCB5A0E23A301F979B
:1036E000FFFFFFFFB4450000FD25A0C8E9A3C14FBF
:1036F000FFFFFFFFFF3F0000000000800000000010
:10370000FF3F00000000008000000000205C5F5FC1
:103710005F205C20202020207C207C202020207C1A
:1037200020205F20207C207C20205F20207C202007
:1037300020207C207C2020200A007C20285F5F5FE6
:103740002020202020207C207C202020207C207C09
:103750005F7C207C207C207C5F7C207C20202020C3
:103760007C207C2020200A0020205F5F5F5F5F209C
:1037700020205F5F5F5F5F5F5F2020205F5F5F5F94
:103780005F2020205F5F5F5F5F2020205F5F5F5FC3
:103790005F5F5F200A002A2A2A2A2A2A2A2A2A2A3E
:1037A0002A2A2A2A2A2A2A2A2A2A2A2A2A2A2A2A79
:1037B0002A2A2A2A2A2A2A2A2A2A2A2A2A2A2A2A69
:1037C0002A2A2A2A0A00202F205F5F5F5F7C207C44
:1037D0005F5F2020205F5F7C207C20205F20207C9A
:1037E000207C20205F20207C207C5F5F2020205FC9
:1037F0005F7C0A006D656D2073697A65203A20252B
:10380000640A000050390008000000201800000081
:10381000C00100086839000818000020201B0000C3
:10382000DC0100081C00000043000000F8FFFFFF5F
:103830000C0000000E0000000F0000002E00000031
:103840001001000043000000F8FFFFFF004040406F
:103850004040404040404141414141404040404063
:10386000404040404040404040404040400502020F
:1038700002020202020202020202020202202020CE
:10388000202020202020200202020202020290902A
:103890009090909010101010101010101010101028
:1038A000101010101010101002020202020288887C
:1038B0008888888808080808080808080808080888
:1038C0000808080808080808020202024000000070
:1038D00000000000000000000000000000000000E8
:1038E00000000000000000000000000000000000D8
:1038F00000000000000000000000000000000000C8
:1039000000000000000000000000000000000000B7
:1039100000000000000000000000000000000000A7
:103920000000000000000000000000000000000097
:103930000000000000000000000000000000000087
:103940000000000000000000000000000000000077
:1039500000127A0000000000340200200000000085
:08396000FF0000000000000060
:040000050800018569
:00000001FF
